:020000040800F2
:10000000B0070020A9010008DD330008012C00081A
:10001000D93300083F090008E93C0008000000004F
:10002000000000000000000000000000E3330008B2
:10003000430A000800000000E13300082D340008E6
:10004000C3010008C3010008C3010008C301000880
:10005000C3010008C3010008C3010008C301000870
:10006000C3010008C3010008C3010008C301000860
:10007000C3010008C3010008C3010008C301000850
:10008000C3010008C3010008C3010008000000000C
:10009000000000000000000000000000C301000894
:1000A000C3010008C3010008C3010008C301000820
:1000B000FD3400080D350008C3010008C301000825
:1000C000C3010008C3010008C3010008C301000800
:1000D000C3010008D93C0008C3010008000000006B
:1000E000C3010008C3010008C301000800000000AC
:1000F000000000000000000000000000C301000834
:1001000000000000C3010008C3010008C30100088B
:1001100000000000000000000000000000000000DF
:10012000C3010008C301000845090008C301000815
:10013000C3010008000000000000000000000000F3
:10014000000000000000000000000000C3010008E3
:10015000C3010008C301000855090008C3010008D5
:10016000C3010008C30100080000000000000000F7
:10017000000000000000000000000000000000007F
:1001800000000000C30100080000000000000000A3
:10019000C3010008DFF80CD000F06EFB00480047F8
:1001A000C1640008B00700200648804706480047A1
:1001B000FEE7FEE7FEE7FEE7FEE7FEE7FEE7FEE717
:1001C000FEE7FEE7E9340008950100082DE9F05F3D
:1001D0000546002092469B468846064681464024B6
:1001E0001BE0284641464746224600F05EFA534649
:1001F0005A46C01A914110D311461846224600F0C3
:1002000045FA2D1A67EB01084F46224601200021CE
:1002100000F03CFA17EB00094E41201EA4F1010446
:10022000DFDC484631462A464346BDE8F09F2DE9CB
:10023000F0410024061B254671F1000605DA012471
:100240000027D0EB070067EB0101161E73F10006D3
:1002500005DA0027D2EB0702012567EB0303FFF75E
:10026000B5FF86460E4617469C46AC4204D0002594
:10027000D0EB050E65EB010624B10020D2EB0007A0
:1002800060EB030C704631463A466346BDE8F081A8
:1002900040EA01039B0703D009E008C9121F08C008
:1002A000042AFAD203E011F8013B00F8013B521E88
:1002B000F9D27047D2B201E000F8012B491EFBD2FF
:1002C00070470022F6E710B513460A460446194661
:1002D000FFF7F0FF204610BD30B50446002003466E
:1002E00000E05B1C934203D2E05CCD5C401BF8D085
:1002F00030BD2DE9FE4F804681EA0300C00F0C4659
:10030000009021F0004123F00045B8EB0200A94124
:1003100005D24046214690461C460B46024623F035
:100320000040104347D0270DC7F30A00C3F30A511A
:100330000290401A019040286BDAC3F3130040F496
:10034000801B0098924620B10023D2EB030A63EB96
:100350000B0B01985946C0F14002504600F096F947
:1003600006460D4650465946019A00F0AEF910EB8C
:1003700008006141002487EA115284EAE7731A43B6
:1003800040D0009A62B3019A012A4FEA075215DC65
:10039000001B61EB02014FF0004202EA0752CDE977
:1003A0000042001C41F5801132462B4600F0E5F971
:1003B00003B0BDE8F08F40462146F9E7001B61EB32
:1003C0000201001C41F5801300185B412018A2F5C2
:1003D000001747EB030140EAD570B6196D4111E0F3
:1003E0006D084FEA360645EAC0754FEA0752001B12
:1003F00061EB0201001C41F5801149084FEA300011
:100400000019514132462B4603B0BDE8F04F00F0D1
:10041000A5B90098012240000023D0EB020263EB53
:10042000E073009821464FEAE074B8EB000061EBFE
:100430000401E9E783F000435BE781F0004158E7FE
:100440002DE9FE4F81EA030404F0004421F000414D
:1004500000944FF0000B23F0004350EA01045ED0FB
:1004600052EA03045BD0C3F30A54C1F30A552C4487
:10047000A4F2F3340194A0FB0254C1F3130141F43C
:100480008011C3F3130343F4801301FB024400FB08
:10049000034E840A970A44EA815447EA8357A4FB2F
:1004A000076802958D0A05FB07854FEA932C04FB2C
:1004B0000C542705029D4FEA065847EA1637B5EB5C
:1004C00008056EEB070C870E920E47EA811742EA89
:1004D0008312A7FB0201B6EB0B0164EB00042B0DAA
:1004E00043EA0C335E1844EB1C50DA465146E7FBF6
:1004F0000201C5F313044FEA0B3343EA14534FEAE6
:100500000432019C43EA0603A4F10C040294009C0B
:10051000CDE900B400F031F903B0BDE8F08F002060
:100520000146F9E72DE9F04D81EA030404F0004BA0
:1005300021F0004514464FF0000A23F0004150EA34
:10054000050220D054EA01021DD0C5F30A57024625
:10055000C5F31303C1F31300C1F30A5640F4801529
:1005600043F48013A7EB0608101BD64608F2FD38AB
:1005700073EB050002D308F1010801E092185B411A
:10058000B8F1000F03DA00200146BDE8F08D00202D
:100590004FF48011064684460EE0171B73EB0507E7
:1005A00005D3121B63EB050306434CEA010C490813
:1005B0004FEA300092185B4150EA0107EDD152EA50
:1005C000030012D082EA040083EA0501084305D043
:1005D000101BAB4106D20122002306E000224FF09F
:1005E000004302E06FF0010253101AEB06004CEBDF
:1005F000085110EB0A0041EB0B01BDE8F04D00F093
:10060000ADB800F0004230F000400AD0C10D01F555
:100610006071C0F3160042EA0151C208400711435D
:10062000704700200146704701F0004330B421F0CC
:10063000004150EA010206D00A0DA2F56072C1F332
:100640001301002A02DC30BC00207047440F44EA4A
:10065000C104C100E01830BC00EBC25000F047B844
:1006600030B50B46014600202022012409E021FA82
:1006700002F59D4205D303FA02F5491B04FA02F57F
:100680002844151EA2F10102F1DC30BD202A04DB52
:10069000203A00FA02F1002070479140C2F1200395
:1006A00020FA03F3194390407047202A04DB203AD4
:1006B00021FA02F00021704721FA02F3D040C2F182
:1006C00020029140084319467047202A06DBCB17C9
:1006D000203A41FA02F043EAE07306E041FA02F3FD
:1006E000D040C2F1200291400843194670470029CA
:1006F000A8BF7047401C490008BF20F001007047A8
:1007000010B4B0FA80FC00FA0CF050EA010404BF07
:1007100010BC704749B1CCF1200421FA04F411FA5D
:100720000CF118BF012121430843A3EB0C01CB1DA1
:100730004FEA00614FEA102042BF002010BC704712
:1007400000EBC35010440029A4BF10BC7047401CEC
:10075000490008BF20F0010010BC704710B5141EFE
:1007600073F1000408DA401C41F1000192185B416A
:100770001A4301D120F0010010BD2DE9F04D924641
:100780009B4611B1B1FA81F202E0B0FA80F2203258
:100790009046FFF77BFF04460F4640EA0A0041EA15
:1007A0000B0153465A46084313D0114653EA010041
:1007B00019D0C8F140025046FFF777FF05460E46B4
:1007C000504659464246FFF761FF084305D00120D5
:1007D00004E020463946BDE8F08D0020054346EA96
:1007E000E0762C4337430A986305E40AA0EB08003F
:1007F0000022FD0A44EA47540A3002D5002001468F
:10080000E9E7010510196941DDE908450019694169
:10081000BDE8F04DA2E7C1F30A52C1F3130140F263
:10082000FF3341F480119A4202DA002001467047FA
:1008300040F233439A42A2F2334202DC5242FFF7C3
:1008400034BFFFF723BF000030B5041E71F1000470
:1008500004DB4FF00044404264EB0101141E73F1CD
:10086000000405DB1C464FF00043524263EB0403D7
:10087000994208BF904230BD064C074D06E0E06843
:1008800040F0010394E8070098471034AC42F6D3D7
:10089000FFF784FC98880008B88800082DE9F04D1F
:1008A00000231A461B1A8A4103DB00200146BDE8DB
:1008B000F08DC1F30A52C1F3130141F480154FF0DA
:1008C000000BD10702D100186D41521E00270446CB
:1008D00040F2FF11384601EB620A3E46804602466E
:1008E00000204FF48011FFF7E0FEC2197141BB18E0
:1008F00046EB0100B4EB030C75EB000C04D3E41AD7
:1009000065EB000517460E46241908F101006D41FC
:1009100080463428E3DDF91946EB0600091BA8419F
:1009200003D24FF0FF32134601E0002213461BEBC7
:10093000070046EB0A51BDE8F04DFFF70FBF00BFBF
:10094000FEE7000010B5024800F0EAF810BD000014
:10095000B402002010B5024800F0E2F810BD00001B
:10096000140300200146087810381823B0FBF3F276
:100970000848805CC865032A05D908686FF3090038
:10098000001D886503E008686FF309008865886DBD
:1009900070470000F07A0008014600208A6A8B69DF
:1009A000CBB932B1012A0DD0022A03D0032A10D1CB
:1009B0000EE000BFCB6A03F08073B3F1807F00D1FB
:1009C000012007E0CB6AB3F1C07F00D1012001E034
:1009D00000E000BF34E08B69B3F5005F1AD132B19B
:1009E000012A07D0022A03D0032A11D10AE000BF4E
:1009F00001200EE0CB6A03F08073B3F1807F00D159
:100A0000012006E0CB6AB3F1C07F00D1012000E0F5
:100A100000BF15E032B1012A05D0022A04D0032A12
:100A20000CD103E000BF00BF012008E0CB6A03F057
:100A30008073B3F1807F00D1012000E000BF00BFD0
:100A40007047704772B600BFFEE770B50446A56DEB
:100A500000F002FB064694F83500022808D08020FA
:100A6000606500BF002084F8340000BF012070BD25
:100A70002068006820F0160021680860206840693E
:100A800020F0800021684861206C08B9A06C28B172
:100A90002068006820F0080021680860206800686D
:100AA00020F001002168086010E000F0D5FA801BFA
:100AB00005280BD920206065032084F8350000BF8D
:100AC000002084F8340000BF0320D0E720680068CD
:100AD00000F001000028E8D194F85C103F20884025
:100AE000A860012084F8350000BF002084F834009D
:100AF00000BF00BFBBE7014691F83500022803D0D4
:100B00008020486501207047052081F8350008687D
:100B1000006820F001000A6810600020F3E7000080
:100B2000F8B50446002000908C4800684FF4165138
:100B3000B0FBF1F7A56D2E6894F85C100820884092
:100B4000304098B12068006800F0040070B120685F
:100B5000006820F004002168086094F85C10082008
:100B60008840A860606D40F00100606594F85C10FA
:100B700001208840304068B12068406900F0800062
:100B800040B194F85C1001208840A860606D40F08E
:100B90000200606594F85C1004208840304068B121
:100BA0002068006800F0020040B194F85C10042056
:100BB0008840A860606D40F00400606594F85C10A7
:100BC00010208840304078B32068006800F00800AA
:100BD00050B394F85C1010208840A860206800682A
:100BE00000F4802080B12068006800F4002028B95B
:100BF000206CC8B12046216C884715E0A06C98B1E4
:100C00002046A16C88470FE02068006800F48070DF
:100C100028B92068006820F0080021680860206C6E
:100C200010B12046216C884794F85C102020884041
:100C30003040002865D02068006800F010000028CF
:100C40005FD094F85C1020208840A86094F83500AC
:100C5000052828D12068006820F016002168086067
:100C60002068406920F0800021684861206C08B944
:100C7000A06C28B12068006820F008002168086096
:100C800094F85C103F208840A860012084F835006B
:100C900000BF002084F8340000BF206D10B1204652
:100CA000216D8847F8BD2068006800F4802080B17D
:100CB0002068006800F4002028B9606C10B120465C
:100CC000616C88471DE0E06BD8B12046E16B884736
:100CD00017E02068006800F4807068B92068006838
:100CE00020F0100021680860012084F8350000BF62
:100CF000002084F8340000BFE06B10B12046E16BA7
:100D00008847606D38B3606D00F00100F0B10520D8
:100D100084F835002068006820F001002168086030
:100D200000BF0098401C0090B84200D905E0206840
:100D3000006800F001000028F3D100BF012084F812
:100D4000350000BF002084F8340000BFE06C10B113
:100D50002046E16C884700BFA4E700000C0000209B
:100D60002DE9F0410446002500F076F9074614B954
:100D70000120BDE8F081606A00B100BF022084F864
:100D8000350000BF002084F8340000BF20680068F0
:100D900020F00100216808600AE000F05DF9C01B46
:100DA000052805D920206065032084F83500E0E798
:100DB0002068006800F001000028EED12068056876
:100DC00021480540D4E901010843E168084321694D
:100DD000084361690843A1690843E1690843216A3E
:100DE00008430543606A042803D1D4E90B01084392
:100DF0000543206805602068456925F00705606A9D
:100E00000543606A04280DD1A06A0543E06A48B131
:100E10002046FFF7C1FD28B140206065012084F81D
:100E20003500A6E7206845612046FFF79BFD064692
:100E300094F85C103F208840B0600020606501207D
:100E400084F83500002094E73F8010F070B5044628
:100E500000F002F906462546681C10B104480078E7
:100E6000054400BF00F0F8F8801BA842FAD370BD1B
:100E700008000020F8B502460B460025002400209B
:100E80000021C7E0012606FA01F51E6806EA0504FE
:100E9000AC4274D11E7906F00306012E04D01E79EF
:100EA00006F00306022E13D190684F000326BE40C1
:100EB000B0434F00DE68BE4030439060506801266A
:100EC0008E40B0431E79C6F300168E40304350600A
:100ED0001E7906F00306032E09D0D0684F000326C2
:100EE000BE40B0434F009E68BE403043D0601E7984
:100EF00006F00306022E13D1CF0802F1200656F8A1
:100F000027004E07F70E0F26BE40B0434F07FF0ED7
:100F10001E69BE403043CF0802F1200646F8270084
:100F200010684F000326BE40B0431E7906F003064A
:100F30004F00BE40304310605E6806F44036002E1D
:100F400067D000BF00260096344E366846F48046CF
:100F5000324F3E603E46366806F48046009600BF3B
:100F600000BF2F4E8F0856F827008E07370F0F2629
:100F7000BE40B0432B4EB24202D1002615E048E0FD
:100F8000294EB24201D101260FE0284EB24201D1D2
:100F900002260AE0264EB24201D1032605E0254E84
:100FA000B24201D1042600E007268F073F0FBE4062
:100FB00030431B4E8F0846F827001F4E3068A04371
:100FC0005E6806F4801606B120431B4E3060361D65
:100FD0003068A0435E6806F4001606B12043164E42
:100FE000361D3060144E361F3068A0435E6806F42C
:100FF000003606B12043104E361F3060361F306871
:10100000A0435E6806F4803606B120430A4E083ECF
:101010003060491C1029FFF435AFF8BD4438024058
:10102000083801400000024000040240000802406D
:10103000000C024000100240083C014002461369C7
:101040000B400BB1012000E0002070470AB1816124
:1010500001E00B048361704701480068704700009D
:101060000000002070B504460CB9012070BD94F852
:101070003D0028B9002084F83C00204600F0DAF852
:10108000242084F83D002068006820F001002168D9
:1010900008602068006840F400402168086020680B
:1010A000006820F400402168086000F0B7FA0546A7
:1010B0005C496068884206D85B48854201D20120BD
:1010C00007E0002005E05948854201D2012000E0F8
:1010D0000020012800D1C9E75548B5FBF0F620688B
:1010E000406820F03F003043216848604D49606807
:1010F000884201D8701C07E04FF4967070434FF49B
:101100007A71B0FBF1F0401C2168096A21F03F01BF
:1011100008432168086243496068884214D8681E01
:1011200061684900B0FBF1F0401CC0F30B000428DB
:1011300001D204203DE0681E61684900B0FBF1F077
:10114000401CC0F30B0034E0A06838B9681E616829
:1011500001EB4101B0FBF1F0401C0AE0681E616840
:1011600001EBC10202EB0111B0FBF1F0401C40F4B5
:101170008040C0F30B0008B901201AE0A06848B90C
:10118000681E616801EB4101B0FBF1F0401CC0F347
:101190000B000CE0681E616801EBC10202EB01115B
:1011A000B0FBF1F0401CC0F30B0040F4804040F471
:1011B00000402168C9694CF6FF72914308432168D9
:1011C000C861D4E9070108432168096821F0C0011A
:1011D000084321680860D4E903100843216889683E
:1011E00048F2FF329143084321688860D4E9050141
:1011F00008432168C96821F0FF0108432168C860DD
:101200002068006840F00100216808600020206428
:10121000202084F83D000020206384F83E0000BFB9
:1012200024E70000A086010080841E0000093D0024
:1012300040420F0010B586B00446142101A8FFF704
:1012400040F82249206888423DD100BF002000902C
:101250001F48006840F002001D4908600846006809
:1012600000F00200009000BF00BF0815019012209E
:10127000029000200390032004900420059001A90F
:101280001448FFF7F7FD082001901220029000207B
:101290000390032004900920059001A90D48FFF751
:1012A000E9FD00BF0020009009481030006840F4BC
:1012B00080000749103108600846006800F480008B
:1012C000009000BF00BF06B010BD000000580040F5
:1012D000303802400004024003480068034909789E
:1012E0000844014908607047000000200800002001
:1012F00010B50D48006840F400700B4908600846BE
:10130000006840F4806008600846006840F480701F
:101310000860032000F0A6F80F2000F007F800F0A6
:101320002BF8002010BD0000003C024070B50446C0
:101330000E4800784FF47A71B1FBF0F00C4909685F
:10134000B1FBF0F5284600F02FFC08B1012070BD7C
:10135000102C07D200222146501E00F045F8054807
:10136000046001E00120F2E70020F0E7080000201F
:101370000C0000200400002008B500BF00200090F1
:101380000E48006840F480400C4908600846006838
:1013900000F48040009000BF00BF00BF002000901C
:1013A000081F006840F08050091F08600846006868
:1013B00000F08050009000BF00BF08BD44380240DC
:1013C0000146084600280DDB00BF00BF00F01F03E8
:1013D00001229A4043099B0003F1E023C3F8002156
:1013E00000BF00BF00BF70472DE9F05F80460D468B
:1013F0001646002702F0A2FC074639462A46334625
:1014000001F00700C0F1070ABAF1040F02D94FF04A
:10141000040A01E0C0F1070AD14600F1040ABAF15A
:10142000070F02D24FF0000A01E0A0F1030AD446F0
:101430004FF0010A0AFA09FAAAF1010A0AEA020AB5
:101440000AFA0CFA4FF0010B0BFA0CFBABF1010B93
:101450000BEA030B4AEA0B042146404602F076FCF5
:10146000BDE8F09F00BF00F00702064B19684FF679
:10147000FF031940044B0B4343EA0221014B19605F
:1014800000BF70470CED00E00000FA0570B504469F
:101490000D460CB9012070BD5848006800F00700E7
:1014A000A84209D255490D700846006800F00700AF
:1014B000A84201D00120EEE7207800F002000228C7
:1014C0001DD1207800F00400042805D14C480068A4
:1014D00040F4E0504A490860207800F008000828ED
:1014E00005D14748006840F46040454908604448D9
:1014F000006820F0F000A1680843414908602078A6
:1015000000F00100A8B36068012807D13C48083802
:101510000068C0F34040B8B90120BCE76068022809
:1015200002D06068032807D1354808380068C0F346
:10153000406048B90120AEE7314808380068C0F380
:10154000400008B90120A6E72D48006820F00300FC
:10155000616808432A490860FFF77EFD064609E0F6
:10156000FFF77AFD801B41F28831884202D90320BF
:1015700091E707E02248006800F00C006168B0EBDA
:10158000810FEDD11D48006800F00700A84209D97D
:101590001A490D700846006800F00700A84201D003
:1015A000012078E7207800F00400042807D11448CF
:1015B000006820F4E050E168084311490860207891
:1015C00000F00800082808D10D48006820F46040A9
:1015D000216940EAC1000A49086000F03FF8084963
:1015E0000968C1F30311074A515CC8400649086005
:1015F00006480068FFF79AFE00204CE7003C0240D6
:1016000008380240F87A00080C000020040000208E
:1016100001480068704700000C00002000B5FFF78B
:10162000F7FF04490968C1F38221034A515CC840AD
:1016300000BD000008380240087B000800B5FFF735
:10164000E7FF04490968C1F34231034A515CC840CD
:1016500000BD000008380240087B00082DE9F04773
:10166000002400250026A1462548006800F00C0053
:1016700020B1042805D008283AD105E0DFF884908D
:1016800039E0DFF8849036E01D48001F006800F064
:101690003F041B48001F006800F4800078B11A481E
:1016A0001749091F0968C1F38811A0FB01700146A1
:1016B000224600233846FEF789FD05460EE0114814
:1016C0000F49091F0968C1F38811A0FB0170014689
:1016D000224600233846FEF779FD05460848001FDC
:1016E0000068C0F30140401C4600B5FBF6F902E07B
:1016F000DFF8109000BF00BF4846BDE8F08700004B
:10170000083802400024F40040787D01F8B5044612
:101710000CB90120F8BD207800F00100002874D039
:10172000F948006800F00C0004280DD0F648006865
:1017300000F00C00082813D1F348001F006800F4E3
:101740008000B0F5800F0BD1EF4808380068C0F377
:101750004040002859D06068002856D10120D9E7C0
:1017600000BF6068B0F5803F08D1E74808380068DE
:1017700040F48030E449083908601EE06068B0F544
:10178000A02F0DD1E0480838006840F48020DE49E1
:10179000083908600846006840F4803008600CE0B2
:1017A000D9480838006820F48030D74908390860E3
:1017B0000846006820F48020086000BF606890B18F
:1017C000FFF74AFC054606E0FFF746FC401B64288D
:1017D00001D903209EE7CC4808380068C0F3404098
:1017E0000028F1D011E0FFF737FC054606E0FFF7CF
:1017F00033FC401B642801D903208BE7C24808381A
:101800000068C0F340400028F1D1207800F00200C9
:1018100002285FD1BC48006800F00C0058B1BA48FB
:10182000006800F00C0008281CD1B748001F0068B1
:1018300000F48000B0B9B44808380068C0F3400034
:1018400020B1E068012801D0012063E7AE480838E4
:10185000006820F0F800216940EAC100AA4908396F
:10186000086037E0E06800B30120A8490860FFF78E
:10187000F3FB054606E0FFF7EFFB401B022801D90A
:10188000032047E7A04808380068C0F3400000285C
:10189000F1D09D480838006820F0F800216940EA3E
:1018A000C10099490839086014E000209749086090
:1018B000FFF7D2FB054606E0FFF7CEFB401B0228F0
:1018C00001D9032026E7904808380068C0F340009B
:1018D0000028F1D1207800F0080008282CD1606998
:1018E000A8B101208A490860FFF7B6FB054606E06B
:1018F000FFF7B2FB401B022801D903200AE7824808
:101900006C300068C0F340000028F1D014E00020E3
:101910007F490860FFF7A0FB054606E0FFF79CFB48
:10192000401B022801D90320F4E677486C30006898
:10193000C0F340000028F1D1207800F00400042812
:1019400070D1002770483830006800F0805090B99E
:1019500000BF002000906C483830006840F0805094
:101960006949383108600846006800F080500090EE
:1019700000BF00BF01276748006800F48070B0B95D
:101980006448006840F4807062490860FFF764FBB7
:10199000054606E0FFF760FB401B022801D9032043
:1019A000B8E65C48006800F480700028F2D000BF00
:1019B000A068012808D154486830006840F0010050
:1019C0005149683108601DE0A06805280DD14E48D6
:1019D0006830006840F004004B49683108600846F0
:1019E000006840F0010008600CE04748683000687B
:1019F00020F001004449683108600846006820F082
:101A00000400086000BFA068A8B1FFF725FB0546E9
:101A100009E0FFF721FB401B41F28831884202D9DF
:101A2000032077E626E0384868300068C0F34000BD
:101A30000028EED013E0FFF70FFB054608E0FFF7A4
:101A40000BFB401B41F28831884201D9032061E63B
:101A50002D4868300068C0F340000028EFD1012F06
:101A600007D129483830006820F0805026493831A5
:101A7000086000BFA069002845D02348006800F036
:101A80000C0008285DD0A069022845D100201F491C
:101A90000866FFF7E1FA054606E0FFF7DDFA401BAE
:101AA000022801D9032035E6174808380068C0F33A
:101AB00040600028F1D1D4E907010843616A40EA97
:101AC00081110122A06AC2EB500041EA00412C20A2
:101AD000005D41EA00600C49091F086001200B49C4
:101AE0000866FFF7B9FA054606E0FFF7B5FA401BAE
:101AF000022801D903200DE6034808380068C0F326
:101B000040600028F1D049E0083802400000474218
:101B1000800E474200700040002021490866FFF710
:101B20009BFA054606E0FFF797FA401B022801D909
:101B30000320EFE51B480068C0F340600028F2D1A5
:101B40002CE0A069012800D1E4E51648001D0668D4
:101B5000A069012820D006F48001E06981421BD1F0
:101B600006F03F01206A814216D147F6C07030402E
:101B7000616AB0EB811F0FD106F440310122A06AE7
:101B8000C2EB5000B1EB004F06D106F070612C2083
:101B9000005DB1EB006F01D00120BBE50020B9E58D
:101BA000000047420038024070B504462546681ED2
:101BB000B0F1807F01D301200FE0681E4FF0E021DB
:101BC00048610F214FF0FF3002F0C0F800204FF0C5
:101BD000E021886107200861002070BD70477047D0
:101BE00030B502460B4600BF92F83C00012801D1F7
:101BF000022030BD012082F83C0000BF022082F8A4
:101C00003D00106844681068816824F0700418680A
:101C1000044310684460144D1068A84213D0106843
:101C2000B0F1804F0FD0114D1068A8420BD0104D6D
:101C30001068A84207D00F4D1068A84203D00E4D7F
:101C40001068A84205D121F080015868014310684E
:101C50008160012082F83D0000BF002082F83C0036
:101C600000BF00BFC5E700000000014000040040C5
:101C700000080040000C00400040014010B5044640
:101C80000CB9012010BD94F83D0028B9002084F85B
:101C90003C00204600F026F8022084F83D00211D7B
:101CA000206801F03BFC012084F8460000BF84F866
:101CB0003E0001213F2001554020015541200155A2
:101CC00000BF00BF012084F842004320015544209A
:101CD00001554520015500BF012084F83D0000203A
:101CE000D0E7000038B504462068B0F1804F18D125
:101CF00000BF002000903948006840F001003749DB
:101D000008600846006800F00100009000BF00BFB6
:101D1000002211461C20FFF767FB1C20FFF750FB39
:101D20005AE02F492068884218D100BF0020009057
:101D30002A48006840F00200284908600846006808
:101D400000F00200009000BF00BF002211461D20DD
:101D5000FFF74AFB1D20FFF733FB3DE021492068D8
:101D600088420FD100BF002000901C48006840F05E
:101D700004001A4908600846006800F0040000905A
:101D800000BF29E01849206888420FD100BF002019
:101D900000901248006840F00800104908600846AA
:101DA000006800F00800009000BF15E00F492068AF
:101DB000884211D100BF002000900848001D006833
:101DC00040F480300549091D08600846006800F4A9
:101DD0008030009000BF00BF38BD00004038024096
:101DE0000004004000080040000C0040004001409A
:101DF000014691F83D00012801D0012070470220E2
:101E000081F83D00164B0868984213D00868B0F17D
:101E1000804F0FD0134B086898420BD0124B0868C4
:101E2000984207D0114B0868984203D0104B0868BD
:101E300098420CD10868806800F00702062A0CD08E
:101E40000868006840F001000B68186005E0086849
:101E5000006840F001000B6818600020CEE7000029
:101E6000000001400004004000080040000C004059
:101E700000400140014691F83D00012801D00120B9
:101E80007047022081F83D000868C06840F00100FA
:101E90000B68D860164B0868984213D00868B0F1F8
:101EA000804F0FD0134B086898420BD0124B086834
:101EB000984207D0114B0868984203D0104B08682D
:101EC00098420CD10868806800F00702062A0CD0FE
:101ED0000868006840F001000B68186005E00868B9
:101EE000006840F001000B6818600020C8E700009F
:101EF000000001400004004000080040000C0040C9
:101F000000400140014600BF0868006A41F211121A
:101F1000104050B90868006A9210104028B908684B
:101F2000006820F001000A68106000BF012081F8FD
:101F30003D00002070472DE9F04104460D46002782
:101F400000BF94F83C00012802D10220BDE8F081D6
:101F5000012084F83C0000BF022084F83D00206886
:101F6000866826F0770626F47F4620688660286813
:101F7000502833D00CDC202850D004DC00284BD073
:101F8000102851D149E0302849D040284CD139E0BF
:101F900060282DD0702807D0B0F5805F03D0B0F551
:101FA000005F41D10DE041E0D5E902136A68206885
:101FB00001F01FFB2068866846F07706206886607F
:101FC00034E0D5E902136A68206801F012FB20684A
:101FD000806840F480402168886027E0EA6869688A
:101FE000206801F0D7FB5021206801F00DFB1DE0B7
:101FF000EA686968206801F0E0FB6021206801F070
:1020000003FB13E0EA686968206801F0C3FB402124
:10201000206801F0F9FA09E000BF00BF00BF29689D
:10202000206801F0F1FA01E0012700BF00BF0120A4
:1020300084F83D0000BF002084F83C0000BF384613
:1020400084E7704770B504462068C5682068066953
:1020500006F00200022819D105F00200022815D16D
:10206000401F21680861012020772068806900F006
:10207000030018B12046FFF7E4FF05E0204600F01A
:10208000EBF8204600F09FF90020207706F00400CE
:10209000042819D105F00400042815D1C043216893
:1020A0000861022020772068806900F4407018B130
:1020B0002046FFF7C6FF05E0204600F0CDF8204699
:1020C00000F081F90020207706F00800082819D1D7
:1020D00005F00800082815D1C043216808610420D4
:1020E00020772068C06900F0030018B12046FFF790
:1020F000A8FF05E0204600F0AFF8204600F063F9A5
:102100000020207706F01000102819D105F01000EB
:10211000102815D1C0432168086108202077206865
:10212000C06900F4407018B12046FFF78AFF05E04F
:10213000204600F091F8204600F045F90020207775
:1021400006F0010048B105F0010030B16FF0010068
:1021500021680861204600F0FBF906F08000802825
:1021600009D105F08000802805D1C04321680861AD
:102170002046FFF733FD06F04000402809D105F066
:102180004000402805D1C04321680861204600F086
:10219000F3F906F02000202809D105F020002028BE
:1021A00005D1C043216808612046FFF718FD70BDC6
:1021B00010B586B00446142101A8FEF782F8206805
:1021C000B0F1804F1DD100BF002000901E48006874
:1021D00040F001001C4908600846006800F001005A
:1021E000009000BF00BF0420019002200290002058
:1021F000039004900120059001A91448FEF73AFECF
:1022000020E01349206888421CD100BF00200090C4
:102210000D48006840F002000B490860084600685D
:1022200000F00200009000BF00BF8020019002205B
:1022300002900020039004900220059001A9054817
:10224000FEF718FE06B010BD303802400000024014
:10225000000800400004024070472DE9F0410446A8
:102260000D461646002700BF94F83C00012802D115
:102270000220BDE8F081012084F83C0000BF36B1A7
:10228000042E1BD0082E31D00C2E5ED145E02946FD
:10229000206801F0C3F92068806940F008002168D7
:1022A00088612068806920F00400216888612068C6
:1022B0008069296908432168886148E029462068C7
:1022C00001F0DCF92068806940F4006021688861D1
:1022D0002068806920F480602168886120688069B6
:1022E000296940EA01202168886130E02946206898
:1022F00001F0F8F92068C06940F008002168C86161
:102300002068C06920F004002168C8612068C069A5
:10231000296908432168C86119E02946206801F04D
:1023200015FA2068C06940F400602168C86120681F
:10233000C06920F480602168C8612068C06929698B
:1023400040EA01202168C86101E0012700BF00BF09
:1023500000BF002084F83C0000BF384689E710B574
:1023600004460CB9012010BD94F83D0028B90020A6
:1023700084F83C00204600F025F8022084F83D0057
:10238000211D206801F0CAF8012084F8460000BF32
:1023900084F83E0001213F20015540200155412095
:1023A000015500BF00BF012084F8420043200155C1
:1023B000442001554520015500BF012084F83D000F
:1023C0000020D0E77047704770B504460D4615B938
:1023D00094F83E000BE0042D02D13F20005D06E0A2
:1023E000082D02D14020005D01E04120005D012860
:1023F00001D0012070BD1DB9022084F83E000EE01E
:10240000042D03D102213F20015508E0082D03D1FE
:1024100002214020015502E0022141200155012204
:102420002946206801F0D4F81D492068884201D16E
:10243000012000E0002028B12068406C40F40040FA
:102440002168486416492068884213D02068B0F19A
:10245000804F0FD01349206888420BD01249206862
:10246000884207D011492068884203D0104920686B
:1024700088420CD12068806800F00706062E0CD038
:102480002068006840F001002168086005E02068CD
:10249000006840F00100216808600020AAE7000001
:1024A000000001400004004000080040000C004013
:1024B0000040014030B504460D4600222946206800
:1024C00001F086F821492068884201D1012000E00E
:1024D000002090B100BF2068006A41F2111108404D
:1024E00050B92068006A8910084028B92068406CFB
:1024F00020F400402168486400BF00BF2068006AE3
:1025000041F21111084050B92068006A8910084052
:1025100028B92068006820F001002168086000BF29
:102520001DB9012084F83E000EE0042D03D10121E5
:102530003F20015508E0082D03D10121402001551D
:1025400002E0012141200155002030BD0000014082
:1025500010B504460648844209D10648006801289F
:1025600002D0052000F044FF0148FFF783FC10BDB6
:10257000DC010020680000207047704710B5044659
:1025800005480068844205D10122044902480068D8
:1025900000F044FA10BD0000A000002084030020D9
:1025A0002DE9F84F0446206805682068C668206851
:1025B00047694FF00009CA4605F00F09B9F1000F4D
:1025C0000AD105F0200038B106F0200020B12046E5
:1025D00001F057F9BDE8F88FB9F1000F7CD007F092
:1025E000010018B906F49070002875D005F00100BC
:1025F00030B106F4807018B1606C40F00100606486
:1026000005F0040030B107F0010018B1606C40F033
:102610000200606405F0020030B107F0010018B15B
:10262000606C40F00400606405F0080048B106F0FA
:10263000200010B907F0010018B1606C40F00800EC
:102640006064606C002846D005F0200028B106F0D8
:10265000200010B1204601F014F920684069C0F351
:10266000801A606C00F0080010B9BAF1000F2DD08C
:10267000204601F0C0F82068406900F04000402882
:1026800020D100BF00BF2168143151E8001F21F0A4
:1026900040002168143141E80002002AF3D100BF54
:1026A000E06B50B17748E16B0865E06BFEF723FA09
:1026B00088B1E06B016D88470DE02046FFF75EFFB3
:1026C00009E009E02046FFF759FF04E02046FFF744
:1026D00055FF002060647DE7206B012878D105F06C
:1026E0001000002874D006F010000028FAD000BFB7
:1026F00000200090206800680090206840680090EA
:1027000000BF00BF2068406900F04000402860D151
:10271000E06B006840681FFA80F8B8F1000F56D0EF
:10272000A08D404553DDA4F82E80E06BC069B0F564
:10273000807F43D000BF00BF21680C3151E8001FEB
:1027400021F4807021680C3141E80002002AF3D1A5
:1027500000BF00BF00BF2168143151E8001F21F005
:1027600001002168143141E80002002AF3D100BFC2
:1027700000BF00BF2168143151E8001F21F0400064
:102780002168143141E80002002AF3D100BF202063
:1027900084F842000020206300BF00BF21680C3194
:1027A00051E8001F21F0100021680C3141E80002BF
:1027B000002AF3D100BFE06BFEF747F90220606307
:1027C000A08DE28D801A81B22046FFF7D6FE01E788
:1027D00042E0A08DE18D401A1FFA80F8E08DD0B361
:1027E000B8F1000F37D000BF00BF21680C3151E8AD
:1027F000001F21F4907021680C3141E80002002A8A
:10280000F3D100BF00BF00BF2168143151E8001FA1
:1028100021F001002168143141E80002002AF3D1BF
:1028200000BF202084F842000020206300BF00BFCA
:1028300021680C3151E8001F21F0100021680C3193
:1028400041E80002002AF3D100BF02206063414644
:102850002046FFF792FEBDE605F0800030B106F09D
:10286000800018B1204601F0C1F9B3E605F0400040
:1028700030B106F0400018B1204600F0F2FFA9E6A2
:1028800000BFA7E6E337000810B504460CB90120E5
:1028900010BDA06900B100E000BF94F8410028B964
:1028A000002084F84000204600F02AF8242084F814
:1028B00041002068C06820F400502168C8602046AC
:1028C00001F05EF82068006920F4904021680861FA
:1028D0002068406920F02A00216848612068C068AB
:1028E00040F400502168C86000206064202084F813
:1028F000410084F842000020606300BFC8E7000088
:1029000010B586B00446142101A8FDF7DAFC3D4954
:102910002068884274D100BF002000903A480068C7
:1029200040F01000384908600846006800F01000C8
:10293000009000BF00BF00BF002000903248143854
:10294000006840F00100304914390860084600680A
:1029500000F00100009000BF00BF4FF4C060019084
:10296000022002900020039003200490072005908D
:1029700001A92648FEF77EFA2548264908604FF04F
:1029800000604860002123488160C1604FF480618D
:102990000161002141618161C16101624162FEF713
:1029A000DFF908B1FEF74EF800BF1A48E063846310
:1029B00000BF17487830184908604FF00060486041
:1029C0004021154881600021C1604FF480610161A0
:1029D000002141618161C16101624162FEF7C0F97C
:1029E00008B1FEF72FF800BF0B48A063846300BF57
:1029F000002211462520FEF7F7FC2520FEF7E0FC1B
:102A000006B010BD001001404438024000000240F2
:102A100040640240B40200201403002070B5044654
:102A20000D46164694F8420020280BD105B10EB988
:102A3000012070BD0020206332462946204601F067
:102A4000B5F8F6E70220F4E710B50446354800680B
:102A5000844266D1344800783449087008460078CA
:102A600018B90120324908702EE03048007801285A
:102A700003D102202E49087026E02C480078012856
:102A800003D103202A4908701EE028480078012855
:102A900003D104202649087016E024480078012854
:102AA00003D10520224908700EE020480078012853
:102AB00003D106201E49087006E01C480078012852
:102AC00002D107201A490870174800780A2803D055
:102AD000154800780D2810D100211648164A1278A2
:102AE00081540020144908700120144908701422F0
:102AF00010490D48FDF7CCFB0DE00F480078132876
:102B000009DA094801780C4802780078401C0A4B21
:102B10001870084881540122034902480068FFF7F1
:102B20007DFF10BDA0000020840300209D00002038
:102B30009C00002098030020A5000020A400002095
:102B40002DE9F84F04460E46174699464FF0000A05
:102B500094F84100202850D106B117B90120BDE8F2
:102B6000F88F00206064212084F84100FEF774FA99
:102B70008246A784E784A068B0F5805F04D120690D
:102B800010B90025B04602E035464FF000081EE0BF
:102B90005346002280212046CDF8009001F056F8DF
:102BA00020B1202084F841000320D8E745B9B8F8C7
:102BB0000000C0F308002168486008F1020803E043
:102BC0002878216848606D1CE08C401EE084E08C11
:102BD0000028DDD15346002240212046CDF8009048
:102BE00001F034F820B1202084F841000320B6E73A
:102BF000202084F841000020B1E70220AFE77047B1
:102C000000BFFEE7FF2000BF011EA0F10100FBD1C5
:102C10007047000010B5002202210948FEF716FA9D
:102C2000012211460648FEF711FAFFF7EBFF0122D9
:102C300002210348FEF70AFAFFF7E4FF10BD000087
:102C40000000024070B5064600240122022112480D
:102C5000FEF7FCF9002517E06006040E012211467C
:102C60000D48FEF7F3F9FFF7CDFF02210A48FEF702
:102C7000E5F908B1601CC4B2002201210648FEF744
:102C8000E5F9FFF7BFFF6D1C082DE5DB304600F0CE
:102C90006BF8204670BD00000000024070B504468D
:102CA00000251EE004F0800028B101220221104816
:102CB000FEF7CCF904E0002202210D48FEF7C6F928
:102CC000FFF7A0FF012211460948FEF7BFF9FFF701
:102CD00099FF002201210648FEF7B8F96006040EAC
:102CE0006D1C082DDEDB00F021F80646304670BD75
:102CF0000000024010B5012202210B48FEF7A6F9A0
:102D0000012211460848FEF7A1F9FFF77BFF0022D8
:102D100002210548FEF79AF9FFF774FF002201210E
:102D20000148FEF793F910BD0000024010B50122E2
:102D300002210C48FEF78AF9FFF764FF01221146D1
:102D40000848FEF783F9FFF75DFF02210548FEF70B
:102D500075F90446002201210248FEF777F9204662
:102D600010BD00000000024010B50446012C05D142
:102D7000012202210B48FEF769F904E0002202213A
:102D80000848FEF763F9FFF73DFF012211460548A9
:102D9000FEF75CF9FFF736FF002201210148FEF73C
:102DA00055F910BD00000240B0F900101E2901DDE8
:102DB0001E210180B0F9001011F11E0F02DA6FF030
:102DC0001D010180704710B580216B2000F0C0F814
:102DD0006420FEF73BF800216B2000F0B9F80320D7
:102DE00000F074F8002000F069F8322000F093F849
:102DF0000021382000F0ACF800216A2000F0A8F88B
:102E00000021232000F0A4F88021372000F0A0F852
:102E1000752000F00DF801216B2000F099F80021D9
:102E20006C2000F095F8C82000F075F8002010BD67
:102E300070B50446FFF75EFFD020FFF72FFF204656
:102E4000FFF72CFFFFF756FFD120FFF727FF0120E8
:102E5000FFF7F8FE0546FFF7DDFE284670BD2DE9B9
:102E6000F04106460F4614461D46FFF743FF00217A
:102E700041EA4601C8B2FFF711FF3846FFF70EFFDF
:102E8000FFF738FF012101EB4601C8B2FFF706FF4B
:102E90000DE0012C04D10120FFF7D4FE287003E0DF
:102EA0000020FFF7CFFE2870601EC4B26D1C002CFE
:102EB000EFD1FFF7AFFE0020BDE8F08110B504466A
:102EC000E006010E1C2000F043F810BD10B50446CA
:102ED000E006010E1B2000F03BF810BD70B5044663
:102EE0000025BC2C01DB012510E0622C01DB022552
:102EF0000CE02A2C01DB032508E0142C01DB04255F
:102F000004E00A2C01DB052500E0062529461A20ED
:102F100000F01EF870BD70B50446B4F57A7F01DD8F
:102F20004FF47A74042C00DA04244FF47A7090FB86
:102F3000F4F0401EC5B22946192000F009F80546F4
:102F4000264604EBD671C1F34F00FFF7C7FF70BDF3
:102F500070B505460C46FFF7CDFED020FFF79EFE6C
:102F60002846FFF79BFE2046FFF798FEFFF752FE2C
:102F7000002070BD2DE9F04105460E4617469846E3
:102F8000FFF7B8FE002141EA4501C8B2FFF786FE0F
:102F90003046FFF783FE002405E018F80400FFF731
:102FA0007DFE601CC4B2BC42F7DBFFF733FE00209D
:102FB000BDE8F08108B500BF002000900E48006811
:102FC00040F480000C4908600846006800F4800066
:102FD000009000BF00BF002211463A20FEF704FA1D
:102FE0003A20FEF7EDF9002211464620FEF7FCF9E3
:102FF0004620FEF7E5F908BD3038024000B587B03D
:10300000142102A8FDF75DF900BF002001903348AC
:10301000006840F08000314908600846006800F010
:103020008000019000BF00BF00BF00200190084653
:10303000006840F0010008600846006800F00100E8
:10304000019000BF00BF00BF00200190084600684B
:1030500040F0020008600846006800F0020001909D
:1030600000BF00BF012203211D48FDF7EFFF002232
:1030700040F272311B48FDF7E9FF03200290112056
:103080000390012004900020059002A91448FDF748
:10309000F1FE40F2023002900120039000200490E3
:1030A000059002A90F48FDF7E5FE4FF4704002902D
:1030B000002003900220049002A90A48FDF7DAFEDE
:1030C000702002900120039004900020059002A936
:1030D0000448FDF7CFFE07B000BD000030380240C5
:1030E000000002400004024010B50B480B49086084
:1030F0000B484860002109488160C1604FF480415D
:103100000161002141618161C1610162FDF7AAFF96
:1031100008B1FDF797FC10BD00580040B00000203A
:10312000A086010000B58DB0002009900A900B9098
:103130000C90079008901C216846FDF7C2F84FF0EC
:103140008040204908605320486000211D4881606C
:1031500040F2E731C160002101618161FEF78EFD1F
:1031600008B1FDF76FFC4FF48050099009A915488C
:10317000FEF7E1FE08B1FDF765FC1248FFF7EFF836
:1031800008B1FDF75FFC00200790089007A90D48E3
:10319000FEF726FD08B1FDF755FC6020009040F2D7
:1031A000F31001900020029004900822694605481F
:1031B000FFF753F808B1FDF745FC0248FEF7F8FFAA
:1031C0000DB000BD0401002000B587B000200390C1
:1031D00004900590069001900290154815490860EA
:1031E00040F24730486000211248816040F2E731E8
:1031F000C160002101618161FEF740FD08B1FDF76A
:1032000021FC4FF48050039003A90A48FEF793FE77
:1032100008B1FDF717FC00200190029001A90548B4
:10322000FEF7DEFC08B1FDF70DFC07B000BD0000A5
:10323000000400404C01002000B58DB00020099032
:103240000A900B900C90079008901C216846FDF79F
:1032500038F82148214908605320486000211F4860
:10326000816040F2E731C160002101618161FEF7B8
:1032700005FD08B1FDF7E6FB4FF48050099009A960
:103280001648FEF758FE08B1FDF7DCFB1348FFF7C0
:1032900066F808B1FDF7D6FB00200790089007A953
:1032A0000E48FEF79DFC08B1FDF7CCFB60200090B6
:1032B00040F2F3100190002002900490042269462D
:1032C0000648FEF7CAFF08B1FDF7BCFB0348FEF74E
:1032D0006FFF0DB000BD0000000800409401002009
:1032E00000B587B0002003900490059006900190EF
:1032F000029015481549086040F2473048600021A7
:103300001248816041F28731C16000210161816111
:10331000FEF7B4FC08B1FDF795FB4FF48050039025
:1033200003A90A48FEF707FE08B1FDF78BFB002052
:103330000190029001A90548FEF752FC08B1FDF783
:1033400081FB07B000BD0000000C0040DC01002044
:103350001FB5002000900190029003900E480F4985
:1033600008600020486000210C4881604FF6FF7122
:10337000C160002101618161FEF780FC08B1FDF7A9
:1033800061FB4FF48050009069460448FEF7D3FD7E
:1033900008B1FDF757FB1FBD00400140240200208B
:1033A00010B50B480B4908604FF4165048600021D7
:1033B00008488160C16001610C2141610021816187
:1033C000C161FFF761FA08B1FDF73CFB10BD0000D9
:1033D000001001406C02002000BFFEE700BFFEE7C6
:1033E000704770470149096888637047940100205D
:1033F00000BF0C4991FBF0F1491E0B4A1268D162E3
:10340000084991FBF0F1491E074AD16000BF054A07
:1034100092FBF0F2511E01EBD1725210024B1B686D
:10342000DA63704740420F000401002010B5FDF739
:1034300053FF10BD00B593B0302107A8FCF741FF42
:10344000142102A8FCF73DFF00BF00200190244892
:10345000006840F08050224908600846006800F08B
:103460008050019000BF00BF00BF002001901D48A8
:10347000006820F4404040F400401A4908600846C3
:10348000006800F44040019000BF00BF0120079099
:103490000004089002200D9041050E9119210F9112
:1034A000A8211091022111910421129107A8FEF781
:1034B0002DF908B1FDF7C6FA0F2002900220039003
:1034C000002004904FF480500590002006900221C7
:1034D00002A8FDF7DBFF08B1FDF7B4FA13B000BD99
:1034E00040380240007000400348006840F470001B
:1034F000014908607047000088ED00E010B50248FF
:10350000FEF7A0FD10BD00000401002010B5024828
:10351000FEF798FD10BD00004C01002010B50268B8
:10352000244B98420BD0B0F1804F08D0224B9842E8
:1035300005D0224B984202D0214B984203D122F071
:1035400070024B681A431B4B984214D0B0F1804F65
:1035500011D0194B98420ED0184B98420BD0184BF3
:10356000984208D0174B984205D0174B984202D08A
:10357000164B984203D122F44072CB681A4322F0D2
:1035800080034C6943EA040202608B68C3620B68E3
:103590008362084B984201D10B69036301234361A5
:1035A000036903F001031BB1036923F00103036105
:1035B00010BD000000000140000400400008004071
:1035C000000C004000400140004401400048014020
:1035D00030B501F01F05012404FA05F3046A9C4389
:1035E0000462046A01F01F0502FA05F52C43046227
:1035F00030BD30B50C46816821F47F4142EA032595
:1036000025432943816030BD0A46816821F070015D
:1036100042F00703194381607047000030B5026A29
:10362000056A25F0010505624368846924F0700489
:1036300024F003040D682C4322F002028D682A4313
:103640000D4DA84206D100BF22F00802CD682A43E2
:1036500022F00402084DA84207D123F4807323F41A
:1036600000734D692B438D692B43436084614D6822
:103670004563026230BD00000000014030B5026ABF
:10368000056A25F0100505624368846924F4E04466
:1036900024F440740D6844EA052422F020028D6869
:1036A00042EA05120E4DA84207D100BF22F0800267
:1036B000CD6842EA051222F04002094DA84209D124
:1036C00023F4806323F400634D6943EA85038D6925
:1036D00043EA8503436084614D688563026230BDBF
:1036E0000000014030B5026A056A25F48075056264
:1036F0004368C46924F0700424F003040D682C436B
:1037000022F400728D6842EA05220F4DA84207D1CB
:1037100000BF22F40062CD6842EA052222F48062F2
:10372000094DA84209D123F4805323F400534D6975
:1037300043EA05138D6943EA05134360C4614D688C
:10374000C563026230BD00000000014030B5036A6D
:10375000056A25F4805505624468C26922F4E04296
:1037600022F440720D6842EA052223F400538D686A
:1037700043EA0533064DA84204D124F480444D6940
:1037800044EA85144460C2614D680564036230BD3B
:103790000000014030B50B461446026A056A25F068
:1037A00001050562816921F0F00141EA041122F06E
:1037B0000A021A438161026230BD30B50B461446DD
:1037C000026A056A25F010050562816921F47041DD
:1037D00041EA043122F0A00242EA0312816102624E
:1037E00030BD70B50546AC6B0020E085E084204616
:1037F000FEF7C4FE70BD00BF00BF02680C3252E885
:10380000002F22F4907102680C3242E80013002B62
:10381000F3D100BF00BF00BF0268143252E8002F8E
:1038200022F001010268143242E80013002BF3D1A8
:1038300000BF016B01290ED100BF00BF02680C322E
:1038400052E8002F22F0100102680C3242E8001307
:10385000002BF3D100BF202180F84210002101632A
:10386000704710B504462068C06820F04000216809
:10387000C860202084F841002046FFF7C0F90020EE
:1038800010BDF8B5044694F84200222875D1A0680E
:10389000B0F5805F0CD1206950B90025A66A206878
:1038A0004068C0F308003080A06A801CA06215E068
:1038B000A56A0026A068B0F5805F03D0A06828B98B
:1038C000206918B920684068287004E020684068C2
:1038D00000F07F002870A06A401CA062E08D401EAE
:1038E00080B2E085002846D12068C06820F0200022
:1038F0002168C8602068C06820F480702168C860B2
:103900002068406920F0010021684861202084F887
:10391000420000206063206B012826D10020206334
:1039200000BF00BF21680C3151E8001F21F01000DA
:1039300021680C3141E80002002AF3D100BF206861
:10394000006800F0100010280AD100BF002000908D
:1039500020680068009020684068009000BF00BFA9
:10396000A18D2046FEF709FE02E02046FFF76CF825
:103970000020F8BD01E00020FBE70220F9E700008D
:103980002DE9F84F04462068006920F44050E168B2
:103990000843216808612169A068084361690843F8
:1039A000E169084300902068C06849F20C618843CF
:1039B000009908432168C8602068406920F440707D
:1039C000A16908432168486176492068884203D08C
:1039D00075492068884203D1FDF730FE814602E038
:1039E000FDF71CFE8146E069B0F5004F6CD1022066
:1039F0006168A0FB015003461920A9FB0070014635
:103A00002A463846FCF7E2FB6421B0FBF1F04FEAAE
:103A1000001A02206168A0FB01510B461920A9FB86
:103A200000712A463846FCF7D1FB834602206168C4
:103A3000A0FB015003461920A9FB00712A46384615
:103A4000FCF7C4FB6421B0FBF1F000EBC00101EB1B
:103A50000010ABEB8000322101EBC0006421B0FB11
:103A6000F1F000F0F8000AEB400A02206168A0FBC8
:103A7000015003461920A9FB007001462A4638462A
:103A8000FCF7A4FB834602206168A0FB01500346BB
:103A90001920A9FB00712A463846FCF797FB6421E0
:103AA000B0FBF1F000EBC00101EB0010ABEB8000CC
:103AB000322101EBC0006421B0FBF1F000F00700FF
:103AC0005044216888606AE004206168A0FB0150CE
:103AD00003461920A9FB007001462A463846FCF728
:103AE00075FB824604206168A0FB01500346192043
:103AF000A9FB007001462A463846FCF767FB6421A3
:103B0000B0FBF1F000EBC00101EB0010AAEB80006C
:103B1000322101EB00106421B0FBF1F000F0F00A5B
:103B200004206168A0FB017003461920A9FB005125
:103B30003A462846FCF74AFB6421B0FBF1F00AEB59
:103B4000001A04206168A0FB01510B461920A9FB53
:103B500000712A463846FCF739FB83460420616829
:103B6000A0FB015003461920A9FB007001462A461C
:103B70003846FCF72BFB6421B0FBF1F000EBC001F1
:103B800001EB0010ABEB8000322101EB001064214F
:103B9000B0FBF1F000F00F00504421688860BDE8F0
:103BA000F88F0000001001400014014010B50346DA
:103BB00099629A85DA8500205864222083F84200B1
:103BC000186928B11868C06840F480701C68E0600B
:103BD0001868406940F001001C6860611868C0689E
:103BE00040F020001C68E060002010BD014691F804
:103BF0004100212828D18868B0F5805F0BD1086981
:103C000048B90A6A1088C0F308000B685860086A4F
:103C1000801C086205E00B6A581C086218780B6863
:103C20005860C88C401E80B2C88458B90868C06803
:103C300020F080000B68D8600868C06840F0400041
:103C40000B68D860002070470220FCE72DE9F8439C
:103C500004460D4617469846089E31E0701C70B326
:103C6000FDF7FAF9A0EB0800B04200D816B903201E
:103C7000BDE8F8832068C06800F00400F8B1802D2A
:103C80001ED0402D1CD020680068C0F3C000B0B129
:103C900000BF002000902068006800902068406805
:103CA000009000BF00BF2046FFF7A5FD082060641C
:103CB00000BF002084F8400000BF0120D8E7FFE7E4
:103CC000206800682840A84201D1012000E00020BF
:103CD000B842C3D00020CBE710B50248FEF760FC25
:103CE00010BD00006C02002000BFFEE70FB4054BC2
:103CF00010B503A9044A029800F0DAFD10BC5DF883
:103D000014FB0000015D0008A800002003B4019826
:103D10004100009850EAC12018BF04204A0D18BF86
:103D200040F0010040F2FF72B2EB515F08BF40F07B
:103D30000200012808BF052002B070470248006851
:103D4000C0F30220704700000CED00E010B5002821
:103D500004DB0A07130E054A135406E00A07140E83
:103D6000034A00F00F031B1FD45410BD00E400E011
:103D700018ED00E00000000070B5C1482DED020B09
:103D80002DED0E8B82B0119D25F000449FEDBEDB22
:103D90009FEDBFEB84423EDBA4F140511098A1F1AE
:103DA0007F6108430FD0BC48844202DC28D11098C0
:103DB00030B39DED100B02B0BDEC0E8B02B0BDE830
:103DC000704000F069BC9DED100B53EC1D2B51ECC5
:103DD000100BFCF735FB9DED100B41EC180B53EC71
:103DE0001E2B51EC100BFCF72BFB53EC182BFCF7A4
:103DF00080FA41EC100B02B0BDEC0E8B02B070BD2E
:103E0000012000F08DFC02B0BDEC0E8B02B0BDE8CD
:103E1000704000F055BCA1489FEDA18B844256DA5A
:103E20009DED100BB4F1795F0ADA51EC100BFFF73E
:103E30006DFF042808BF00F053FC9DED100BDAE77E
:103E400053EC102B51EC100BFCF7FAFA41EC190B68
:103E500095480621B0EE490AF0EE690A784400F070
:103E60009FFB53EC192B51EC100BFCF7E9FA41ECDA
:103E70001A0B8E48B0EE490AF0EE690A0421784424
:103E800000F08EFB53EC192B51EC100BFCF7D8FA19
:103E900053EC182BFCF72DFA41EC100B51EC1A0BDC
:103EA00053EC102BFCF73EFBCDE900019DED000B20
:103EB00053EC102B9DED100B51EC100BFCF7C0FADE
:103EC0009DED101B53EC112BFCF713FAD2E09DED86
:103ED000100B51EC100B01F007FF53EC182BFCF703
:103EE000ACFA9FED730BCDE9000153EC102B9DED67
:103EF000000B51EC100BFCF7A3FA41EC190B6E48C8
:103F00000621B0EE490AF0EE690A784400F048FB59
:103F100053EC192B51EC100BFCF792FA41EC1B0BF4
:103F20006648B0EE490AF0EE690A0421784400F0D0
:103F300037FB53EC192B51EC100BFCF781FA53ECC7
:103F4000182BFCF7D6F941EC1C0B51EC190B03F0C4
:103F5000E3FC41EC180B5A489FED5BABA04222DC1E
:103F600053EC1C2B51EC1B0BFCF7DCFACDE90001E8
:103F70009DED000B51EC180B53EC102BFCF760FA85
:103F800053EC182BFCF7B5F953EC1A2BFCF758FA45
:103F900053EC1D2BFCF74EFA53EC1E2BFCF74DFA9D
:103FA00041EC100B5FE08DED008B002000909DED4B
:103FB000000B51EC180B53EC102BFCF79AF99DED0C
:103FC000000B41EC1E0B53EC102B51EC100BFCF7CB
:103FD00037FA53EC192BFCF730FA53EC1E2BFCF795
:103FE000A1FA41EC190B53EC1C2B51EC1B0BFCF709
:103FF00099FA41EC1B0B53EC1A2B51EC190BFCF703
:104000001FFA53EC1D2BFCF718FA41EC190B53EC7B
:104010001A2B51EC180BFCF713FA53EC1B2BFCF783
:104020000FFA53EC192BFCF705FA9DED000B41EC50
:10403000180B53EC1A2B51EC100BFCF701FA9FED07
:10404000249B53EC192BFCF7F8F941EC100B51ECC5
:10405000180B53EC102BFCF7EDF953EC192BFCF774
:10406000ECF941EC100B002D3FF7C5AE51EC100BF5
:1040700081F0004141EC100BBDE6000000000000A3
:104080000000F03F00000000075C143326A6913CBE
:10409000182D4454FB21F93F0000F07F0000E03F61
:1040A000000000000000F03FF84800000649000052
:1040B000000000000000E03F4A48000058480000AF
:1040C0003333EF3F0000000000000000000000401C
:1040D000182D4454FB21E93F70B59B482DED020B90
:1040E0002DED068B079D25F00044A04218DC974873
:1040F000844202DC0AD1069840B19DED060BBDEC6E
:10410000068B02B0BDE8704000F0C6BA002DCCBFEF
:104110009FED8F0B9FED900BBDEC068B02B070BD39
:104120008F48A04215DD8F48A042D8BF4FF0FF3422
:1041300058DD9DED060B51EC100BFFF7E7FD042851
:1041400008BF00F0CDFA9DED060BBDEC068B02B06A
:1041500070BD9DED060B51EC100B01F0C5FDCDE9D6
:10416000060181489FED828BA0423CDD8248A0423F
:104170001FDD00249FED82AB9DED060B53EC1A2B47
:1041800051EC100BFCF7B5F89DED060B41EC190B4B
:1041900053EC1A2B51EC100BFCF752F953EC182B83
:1041A000FCF748F953EC192BFCF7BCF9CDE90601F3
:1041B00049E09DED060B012453EC182B51EC100B3C
:1041C000FCF797F89DED060B41EC190B53EC182BFF
:1041D00051EC100BFCF72EF953EC192BFCF7A2F95C
:1041E000CDE906012FE06848A0421FDD02249FEDC3
:1041F000689B9DED060B53EC192B51EC100BFCF753
:104200001FF953EC182BFCF774F89DED060B41ECED
:10421000180B53EC192B51EC100BFCF70BF953EC6A
:10422000182BFCF77FF9CDE906010CE09DED060B9C
:10423000032453EC102B9FED580B51EC100BFCF7A3
:1042400071F9CDE906019DED060B53EC102B51ECF5
:10425000100BFCF7F5F841EC180B53EC182BFCF79E
:10426000EFF841EC190B4E480621B0EE490AF0EE8A
:10427000690A784400F094F953EC182B51EC100BB8
:10428000FCF7DEF841EC180B4648B0EE490AF0EEB8
:10429000690A0521784400F083F953EC192B51EC9D
:1042A000100BFCF7CDF841EC100B51EC180B53EC54
:1042B000102B002C0EDAFCF71CF89DED061B53ECBE
:1042C000112BFCF7BDF89DED061B53EC112BFCF7F1
:1042D000B4F835E0FCF70DF89DED061B53EC112BFF
:1042E000FCF7AEF841EC100B2F48784400EBC4000B
:1042F00090ED001B51EC100B53EC112BFCF79AF8CE
:104300009DED061B53EC112BFCF794F841EC100BC0
:104310002648784400EBC40090ED001B51EC100BD4
:1043200053EC112BFCF789F841EC100B002DA2BFC8
:10433000BDEC068B02B070BD51EC100B81F000415A
:1043400041EC100B01E70000000010440000F07F7A
:10435000182D4454FB21F93F182D4454FB21F9BF7B
:104360000000DC3F0000203E0000F33F00000000A2
:10437000000000000000F03F0000E63F00000000E9
:10438000000000000000004000800340000000002A
:10439000000000000000F83F000000000000F0BF37
:1043A0009A45000050450000DA44000092440000A5
:1043B00070B56B4E2DED040B2DED028B82B0DDF848
:1043C0001CC0DDE905235C422CF000411C4341EA9E
:1043D000D474049D22F00040B44205D86C422C43B2
:1043E00040EAD474B4420BD99DED061B9DED040B3D
:1043F00002B0BDEC028B04B0BDE8704000F056B9CD
:10440000ACF14054A4F17F641C430BD0022404EAB5
:10441000AC7444EAD27405439FED538B9FED542B4B
:1044200007D015E09DED040B51EC100B00F038FEA9
:1044300042E0002C11BF012C9DED040B02B0BDEC3D
:10444000028B04BF04B070BD022C38D0032C3BD0CB
:104450000B439FED491B9FED4A0B0AD0B14218D187
:10446000B04209D121F0804120F0804007910590B1
:104470000FE0002A15DA10E0434B7B44002C08BF04
:1044800093ED000B0DD0012C10D0022C17D0032C73
:104490001AD0B0421DD1002A03DAB0EE410AF0EE84
:1044A000610A02B0BDEC028B04B070BD93ED000B4D
:1044B00051EC100B81F0004141EC100BF1E7B0EE34
:1044C000480AF0EE680AECE7B0EE420AF0EE620A43
:1044D000E7E7401A00153C28C8BF8DED000B19DC3A
:1044E000BCF1000FBEBF10F13C0F9FED290B8DED0D
:1044F000000B0FDB9DED060B53EC102B9DED040B19
:1045000051EC100BFCF70EF801F0EEFB00F0C8FDCB
:10451000CDE90001002C08BF9DED000BC1D0012C9E
:1045200010D0022C9FED1C0B53EC102B9DED000BBB
:1045300051EC100B0DD0FBF77DFF53EC182BFBF764
:1045400079FFB9E7019880F0004001909DED000BE4
:10455000A7E7FBF76FFF53EC182BFBF76EFFABE7FA
:104560000000F07F00000000182D4454FB2109409A
:10457000182D4454FB2109C0182D4454FB21F9BFC8
:10458000182D4454FB21F93FC243000000000000F5
:104590000000000000000000075C143326A6A13CC8
:1045A00070B504462DED028B4D1E00EBC500B0EE3C
:1045B000408AF0EE608A90ED000B35F0060017D0CF
:1045C00053EC182B51EC100BFBF73AFF41EC100B9E
:1045D0006D1E04EBC50090ED001B51EC100B53EC6D
:1045E000112BFBF786FE41EC100B35F00600E7D1EE
:1045F000022D36D0042D1CD0062D1CBFBDEC028B25
:1046000070BD53EC182B51EC100BFBF719FF94ED18
:104610000A1B53EC112BFBF76CFE53EC182BFBF72A
:104620000FFF94ED081B53EC112BFBF762FE41ECDE
:10463000100B53EC182B51EC100BFBF701FF94ED12
:10464000061B53EC112BFBF754FE53EC182BFBF716
:10465000F7FE94ED040B53EC102BFBF74AFE41ECF4
:10466000100B53EC182B51EC100BFBF7E9FE94EDFB
:10467000021B53EC112BFBF73CFE53EC182BFBF702
:10468000DFFE94ED001B53EC112BFBF732FEBDEC6B
:10469000028B41EC100B70BD10B553EC102B51EC9C
:1046A000100BFBF726FE41EC100B10BD10B553ECC0
:1046B000112B51EC100BFBF71CFE41EC100B10BD45
:1046C0009FED050B10B553EC102B51EC100BFBF7C5
:1046D00029FF41EC100B10BD00000000000000009D
:1046E0009FED050B10B553EC102B51EC100BFBF7A5
:1046F000A7FE41EC100B10BD0000000000000010F0
:1047000002E008C8121F08C1002AFAD1704770479A
:10471000002001E001C1121F002AFBD170470000F8
:104720000149086070470000AC0000202DE9FF5FE0
:1047300082B00021DDE90430020DDDF840B0034312
:1047400018D044F61050A2F2FF32424315141198CB
:1047500001281FD0A5EB0B00401C5FEA000A4FF0B8
:1047600000064E4FDFF83891B046504615D5CAF1D5
:10477000000413E0119801244AA3012801D16FEA33
:104780000B010298119AC0E90031C0E9024206B05B
:10479000BDE8F09FCBF10000DFE704460021404A6E
:1047A000491842EB0450CDE9001012E0E00707D0B1
:1047B00032463B4640464946FBF742FE8046894624
:1047C00032463B4610461946FBF73AFE06460F4670
:1047D0006410002CEAD1DDE90401DDE90023BAF11F
:1047E000000F06DAFBF72CFE42464B46FBF728FE8D
:1047F00005E0FBF797FE42464B46FBF793FE044667
:104800000E460022284BFCF71FF803D84FF0FF306C
:10481000014607E00022254B20463146FBF769FDA3
:10482000FBF7F9FF102409E0002C0ADB0A22002321
:10483000FBF7CCFC039B30321A55641E50EA010290
:10484000F2D1641C039AC4F111031444119A012A91
:1048500003D0012208430DD10AE0084304D0002010
:104860004FF0110B119072E7A3EB0B056D1E0DE0DD
:104870005B4504DD4FF0000205F1010504E003DAB9
:104880004FF00002A5F10105002AECD00298119921
:10489000C0E90231C0E9004579E70000000014409A
:1048A0000000F03F300000000000F0430000E03F57
:1048B0002DE9FF4F95B09B468946064600250FE23D
:1048C000252877D100242746F84A0121059400E0E5
:1048D000044316F8013F203B01FA03F01042F7D1E0
:1048E00030782A2811D06FF02F033078A0F13002F1
:1048F000092A16D8059A44F0020402EB820203EB5F
:1049000042021044761C0590EFE759F8042B0592FB
:10491000002A03DA504244F40054059044F00204A3
:10492000761C30782E2816D116F8010F44F00404B6
:104930002A280DD06FF02F023078A0F13003092B18
:1049400009D807EB870302EB4303C718761CF3E78C
:1049500059F8047B761C30786C280FD006DC4C2884
:1049600017D068280DD06A2814D104E0742810D01C
:104970007A280FD10DE044F400140AE044F48014C6
:1049800001E044F440147278824202D104F58014AC
:10499000761C761C307866280BD013DC582877D02C
:1049A00009DC002875D04528F6D04628F4D04728E1
:1049B0001AD19DE118E0632835D0642879D06528A4
:1049C00012D195E1702873D008DC6728F1D06928EE
:1049D0006FD06E280DD06F2806D1B5E073282CD08B
:1049E000752875D0782874D05A46179990476D1C51
:1049F00075E1C4F30250022809D003280DD0D9F87C
:104A0000001004280DD00D6009F1040967E1D9F800
:104A10000010EA17C1E90052F6E7D9F800100D803E
:104A2000F2E70D70F0E719F8041B8DF80010002074
:104A30008DF80100EA46012003E059F804AB4FF07D
:104A4000FF3061074FF0000102D40DE008F10101D1
:104A50008846B9420FDA8045F8DB1AF808100029B9
:104A6000F4D108E008F1010188468142FADB1AF826
:104A700008100029F6D105985B46A0EB08072146EF
:104A80003846179A00F094FA284400EB080507E02E
:104A90004DE029E10DE01AF8010B5A4617999047AD
:104AA000B8F10108F7D25B4621463846179A13E160
:104AB00042E00A220092C4F302524FF0000A022A96
:104AC00008D059F804CB032A4FEAEC710AD00DE064
:104AD00029E02AE009F1070121F00702F2E802C10A
:104AE000914609E00FFA8CFC4FEAEC71042A03D1DD
:104AF0004FFA8CFC4FEAEC71002907DA0A460021D4
:104B0000DCF1000C61EB02012D2202E0220504D54C
:104B10002B228DF80420012203E0E20701D020229D
:104B2000F7E7904659E00A2102E010220DE010213B
:104B30004FF0000A00910BE010224FF0000A44F001
:104B400004040827009203E008224FF0000A0092B4
:104B5000C4F30252022A05D059F804CB0021032ADB
:104B600008D009E009F1070121F00702F2E802C1CB
:104B7000914605E01FFA8CFC042A01D10CF0FF0CD1
:104B80004FF00008220728D5702806D0009B83F03C
:104B9000100353EA0A0305D00EE040228DF80420EA
:104BA000012208E05CEA010206D030228DF80420E0
:104BB0008DF8050002229046009B83F0080353EA1B
:104BC0000A030AD15CEA010201D1620705D530224D
:104BD0008DF804204FF001087F1E582804D034A01F
:104BE00003900EA802900DE036A0F9E75346604608
:104BF000009AFBF7EBFA84460398825C0298401E09
:104C0000029002705CEA0100F0D1029806A9081A2D
:104C100000F1200A600702D524F4803400E0012767
:104C2000574502DDA7EB0A0000E0002000EB0A0177
:104C3000009005984144401A0590E00306D45B4675
:104C40002146179A059800F0B3F90544002706E0BD
:104C500001A85A46C05D179990476D1C7F1C4745B7
:104C6000F6DBE0030CD55B462146179A059800F069
:104C70009FF9054404E030205A46179990476D1C6F
:104C80000099481E00900029F5DC08E0029802997E
:104C90005A460078491C0291179990476D1CBAF149
:104CA0000001AAF1010AF1DC65E100000928010018
:104CB0003031323334353637383961626364656692
:104CC0000000000030313233343536373839414254
:104CD000434445460000000000F058F90544761CA6
:104CE000307800287FF4ECAD19B02846BDE8F08F8D
:104CF000620700D4062709F1070222F0070CFCE83E
:104D00000223E14603F000485FEA080C02D00FF2EC
:104D1000702C0DE05FEA045C02D50FF2682C07E00E
:104D20005FEAC47C02D00FF2602C01E0AFF2700C9D
:104D30004FF0FF3823F00043CDF850C065280CD069
:104D400006DC452809D046281DD047283DD13DE046
:104D5000662818D067287ED138E00021112F01DBAA
:104D6000112000E0781CCDE9000106A90EA8FFF78C
:104D7000DDFCDDE90F010E9A03910021009207F19D
:104D8000010A04914DE04FF000400097CDE9011079
:104D900006A90EA8FFF7CAFCDDE90F0203920E9BDD
:104DA00011990022DDF80CA00093049211B9791C2E
:104DB00000EB010AB7EB0A0004D4C0F1FF3007F1A1
:104DC000010A0490AAEB0700019044E0012F00DAE9
:104DD00001270021112F01DD112000E03846CDE927
:104DE000000106A90EA8FFF7A1FCDDE90F010E9A4C
:104DF0000391002104910092BA4621070CD4039933
:104E0000514500DA8A46BAF1010F05DD009AAAF190
:104E10000101515C302908D0B84202DA10F1040FC8
:104E200006DA0121CDE9011015E0AAF10101E9E757
:104E3000002805DC049901440491AAEB000102E07A
:104E4000411C514500DD8A460499401A401C0190DE
:104E50004FF000400290200704D40198504501DB38
:104E6000CDF8048000208DF84F0002980DF14F0717
:104E7000B0F1004F25D02B200E9002984FF0020881
:104E800000280CDA404202902D200E9007E00A2103
:104E90000298FBF7E5FB3031029007F8011DB8F1ED
:104EA0000001A8F10108F2DC02980028EFD1791E78
:104EB0000E980870307800F0200040F0450007F8A8
:104EC000020D12A8C01B00F107081498007800B169
:104ED000012000EB0A01019801EBE07105984144C3
:104EE000401A401E0590E00306D45B462146179AFF
:104EF000059800F05DF805441498007818B15A46FA
:104F0000179990476D1CE00324D55B462146179AFC
:104F1000059800F04DF805441CE00498002807DBD4
:104F2000DDE90301884203DD0098405C179901E048
:104F3000179930205A469047049805F10105401C06
:104F400004900198401E019004D12E205A461799D2
:104F500090476D1CBAF10001AAF1010ADDDC05E001
:104F600017F8010B5A46179990476D1CB8F10001CC
:104F7000A8F10108F4DC5B462146179A0598ABE6D8
:104F80002D0000002B000000200000002DE9F04162
:104F9000044600251E461746880404D405E0394619
:104FA0002020B0476D1C641EF9D52846BDE8F0816D
:104FB0002DE9F041044600251E469046C80301D560
:104FC000302700E02027880404D505E04146384614
:104FD000B0476D1C641EF9D52846BDE8F08100007D
:104FE000F0B52DED028B83B006460F4600256846CE
:104FF00000F094FE002447E056F8241057F82420CF
:10500000881A002801DB014600E0414200EE101A38
:10501000B8EEC00ADFED200A80EE208A684600EB79
:10502000840090ED000AB5EEC00AF1EE10FA18D037
:10503000684600EB8400D0ED000A88EE200AF7EE07
:10504000000A70EE608AB0EEE80A1448D0ED090A52
:10505000B4EEE00AF1EE10FA15DD0120A0400543A0
:1050600011E00E4890ED070AB4EEC80AF1EE10FA0E
:1050700006DC90ED080AB4EEC80AF1EE10FA02D28E
:105080000120A0400543641C032CB5DB284603B077
:10509000BDEC028BF0BD000000008047387B0008AB
:1050A00010B541EC100BFFF717F851EC100B10BDC9
:1050B0002DE9F0410446E07800F0C006E07800F009
:1050C0003F05607800F0010098B1EF102846E9171D
:1050D00005EB5171C910A5EBC101491C01F0FF0896
:1050E0000B48006820B10A4841460268384690479C
:1050F00000BF607800F0080030B10548406818B182
:10510000B011034A516888470020BDE8F0810000D3
:105110007403002038B5044664B120208DF80000E7
:1051200028208DF8010030208DF8020038208DF8FD
:10513000030004E0A32204216846FBF7BBF86A469B
:10514000042140F69E2002F011FB01F0FBFE38BD69
:105150003EB5044602208DF80000CA208DF80100FB
:10516000E3208DF8020009208DF803006A4604212F
:10517000682002F0FBFAA3208DF8000004F0400044
:1051800048B1C0208DF80100C8208DF80200C2206F
:105190008DF8030006E0A3208DF801008DF80200D1
:1051A0008DF8030004F4C07048B1C4208DF80400E9
:1051B000CC208DF80500C6208DF8060006E0A3205F
:1051C0008DF804008DF805008DF80600A3208DF8F9
:1051D00007008DF808008DF809006A460A2140F69C
:1051E000A72002F0C3FA04F0030018B120208DF8C4
:1051F000000002E0D8208DF800006A46012140F648
:10520000B62002F0B3FA04F0200018B1012000F03B
:10521000ADF802E0002000F0A9F804F4C07008B373
:1052200004F4807060B1B2208DF800008B208DF8FE
:105230000100B6208DF802009B208DF803000BE0E2
:10524000B0208DF8000080208DF80100B4208DF88A
:10525000020090208DF803006A46042140F6A22047
:1052600002F084FA04F0010020B3F8208DF8000069
:105270006A4601214FF40B6002F078FAFA21072008
:1052800000F02CFC072000F0F3FB012000F013FCE1
:10529000642000F003FD4FF4FA7000F012FDC82105
:1052A000304800F0A3FB282000F0BCFB0A2000F0EF
:1052B000CCFB08E0D8208DF800006A4601214FF4AD
:1052C0000B6002F053FA04F0020018B1D9208DF8F7
:1052D000000002E0D8208DF800006A46012140F26B
:1052E0003D7002F043FA04F0040018B1012000F010
:1052F00069F802E0002000F065F804F0100018B131
:105300000120FFF707FF02E00020FFF703FF44F052
:1053100008001549488101F015FE002012498873E4
:1053200004F0400018B10846807B801D887304F4A7
:10533000C07020B10C48807B801D0B49887304F03D
:10534000140020B10848807B10300749887304F0AE
:10535000030020B10448807B001D034988730020AE
:105360003EBD000009E3CA02740300203EB50446B6
:105370006CB10EA1D1E900208968CDE9002002912D
:105380006A4609214FF4976002F0F0F93EBD0AA287
:10539000D2E900109268CDE9010200916A46092124
:1053A0004FF4976002F0E2F9F0E70000B8AAB38D7D
:1053B000B4980D355D000000B8AAAAAAB088C3C58C
:1053C000C700000038B5044664B1C0208DF8000065
:1053D000C2208DF80100C4208DF80200C6208DF88F
:1053E000030004E08B2204216846FAF763FF6A4653
:1053F000042140F6982002F0B9F901F0A3FD38BD70
:1054000010B5C8234FF48062024940F6F63001F02F
:105410002DFC10BD607B00082DE9F04F8DB00746D4
:10542000884615469946DDE9166B00240020308039
:105430006B49887B5A4605A901F0E4FC18B1601E4F
:105440000DB0BDE8F08F6648807A00F014000028A7
:1054500067D09DF8140000069DF8151040EA014041
:105460009DF8161040EA01209DF8171008432860A7
:105470009DF8180000069DF8191040EA01409DF8BB
:105480001A1040EA01209DF81B10084368609DF83F
:105490001C0000069DF81D1040EA01409DF81E10FA
:1054A00040EA01209DF81F100843A8609DF82000E5
:1054B00000069DF8211040EA01409DF8221040EAC4
:1054C00001209DF823100843E86004F11000C4B2E5
:1054D000286800140190686800140290A8680014FD
:1054E0000390E8680014049001984043029901FB7E
:1054F0000100039901FB0100049901FB010ABAF1C3
:10550000706F02DBBAF1885F05DD01F01BFD002042
:105510003080401E94E7B6F9000040F4807030807F
:1055200000BF2F48807A00F0400020B305A9601C1E
:10553000085C095D40EA012000B2A8F8000005A956
:10554000E01C095C05AAA01C105C41EA002000B226
:10555000A8F8020005A9601D095C201D105C41EA45
:10556000002000B2A8F80400A01DC4B2B6F90000E3
:1055700040F0080030801A48408900F4C07008B339
:1055800005A9601C085C095D40EA012000B2388072
:1055900005A9E01C095C05AAA01C105C41EA0020DA
:1055A00000B2788005A9601D095C201D105C41EAED
:1055B000002000B2B880A01DC4B2B6F9000040F0CF
:1055C000700030800648807A00F0030018B105A909
:1055D0000819FFF76DFD484600F0F4FF00202FE7A3
:1055E0007403002070B588B0064601A801F0A0F948
:1055F000BDF804000021C90341EA5045C4034448F2
:10560000007A00F0030056F8200005904048007A28
:1056100000F0040010B10598404205903C48007A23
:10562000C0F3C10056F8200006903948007A00F017
:10563000200010B10698404206903548007AC0F329
:10564000811056F8200007903148008900F48070DE
:1056500010B10798404207900598C117A0FB04239A
:1056600001FB043100FB0510810041EA92700590B6
:105670000698C117A0FB042301FB043100FB0510B1
:10568000810041EA927006900798C117A0FB04239D
:1056900001FB043100FB0510810041EA9270079084
:1056A0000598000E8DF808000598000C8DF809008B
:1056B0000598000A8DF80A000598C0B28DF80B0015
:1056C0000698000E8DF80C000698000C8DF80D0061
:1056D0000698000A8DF80E000698C0B28DF80F00EB
:1056E0000798000E8DF810000798000C8DF8110037
:1056F0000798000A8DF812000798C0B28DF81300C1
:1057000002AA0C214FF4257002F030F808B070BDE9
:105710007403002030B585B0044616A207CA02AB58
:1057200007C3C82C03DD4FF0FF3005B030BDC820E3
:1057300090FBF4F0401E85B2280A8DF80000E8B214
:105740008DF801006A46022140F2162002F00EF8A0
:1057500010B14FF0FF30E8E702AA0C2140F6C1205B
:1057600002F004F810B14FF0FF30DEE70448848106
:105770000020DAE7FEF2ABC4AAF1DFDFBBAFDFDF68
:10578000740300201FB504464848007A00F0030067
:1057900054F8200001904548007A00F0040010B150
:1057A0000198404201904148007AC0F3C10054F88A
:1057B000200002903D48007A00F0200010B10298CD
:1057C000404202903948007AC0F3811054F820001A
:1057D00003903648008900F4807010B1039840426D
:1057E00003903349019880FB0101800F40EA81005A
:1057F00001902F49029880FB0110820042EA9170CB
:1058000002902B49039880FB0110820042EA9170BC
:1058100003900198000E8DF800000198000C8DF89F
:1058200001000198000A8DF802000198C0B28DF8BD
:1058300003006A4604214FF4747001F097FF18B119
:105840004FF0FF3004B010BD0298000E8DF800003C
:105850000298000C8DF801000298000A8DF80200F1
:105860000298C0B28DF803006A4604214FF47570A7
:1058700001F07CFF10B14FF0FF30E3E70398000E1A
:105880008DF800000398000C8DF801000398000AC1
:105890008DF802000398C0B28DF803006A46042117
:1058A0004FF4767001F062FFCCE700007403002033
:1058B00009E3CA0210B586B0044647A00068039009
:1058C00046A00068029046A00068019045A00068CC
:1058D000009004F0030003A9085C8DF8140003A8ED
:1058E000C4F3C101405C8DF8150003A8C4F3811115
:1058F000405C8DF8160004F0030002A9085C8DF8E6
:10590000100002A8C4F3C101405C8DF8110002A888
:10591000C4F38111405C8DF8120005AA032140F206
:10592000264001F023FF18B14FF0FF3006B010BD44
:1059300004AA032140F22A4001F018FF10B14FF0F1
:10594000FF30F3E7019805900098049004F00400FC
:1059500058B19DF8140040F001008DF814009DF836
:10596000100040F001008DF8100004F0200058B144
:105970009DF8150040F001008DF815009DF811000C
:1059800040F001008DF8110004F4807058B19DF8CA
:10599000160040F001008DF816009DF8120040F04E
:1059A00001008DF8120005AA03214FF4886001F070
:1059B000DDFE10B14FF0FF30B8E704AA032140F23A
:1059C000314001F0D3FE10B14FF0FF30AEE7064892
:1059D00004810020AAE700004CCD6C000CC92C000B
:1059E000365676002646660074030020F8B5054654
:1059F0000E464FF47A7095FBF0F000FB06F4200E93
:105A00008DF80000200C8DF80100200A8DF80200AE
:105A1000E0B28DF803006A4604214FF4AE7001F045
:105A2000A5FEF8BD38B50446052094FBF0F084B21D
:105A300020128DF80000E0B28DF801006A460221C4
:105A40004FF4AD7001F092FE38BD38B50446052024
:105A500094FBF0F084B220128DF80000E0B28DF8D3
:105A600001006A4602214FF4AC7001F07FFE38BDA0
:105A700038B504460020009004F0010020B19DF8E4
:105A8000000040F03000009004F0020020B19DF8CA
:105A9000000040F00C00009004F0040020B19DF8DC
:105AA000000040F0030000906A4601214FF4A4700A
:105AB00001F05CFE38BD38B50446012C01DA012442
:105AC00002E0042C00DD0424601EC0B200906A468F
:105AD000012140F24F1001F049FE38BDF0B52DED27
